{
  "_format": "hh-sol-artifact-1",
  "contractName": "ArbitrageToken",
  "sourceName": "contracts/token/ArbitrageToken.sol",
  "abi": [
    {
      "inputs": [
        {
          "internalType": "address",
          "name": "initialOwner",
          "type": "address"
        }
      ],
      "stateMutability": "nonpayable",
      "type": "constructor"
    },
    {
      "inputs": [
        {
          "internalType": "address",
          "name": "spender",
          "type": "address"
        },
        {
          "internalType": "uint256",
          "name": "allowance",
          "type": "uint256"
        },
        {
          "internalType": "uint256",
          "name": "needed",
          "type": "uint256"
        }
      ],
      "name": "ERC20InsufficientAllowance",
      "type": "error"
    },
    {
      "inputs": [
        {
          "internalType": "address",
          "name": "sender",
          "type": "address"
        },
        {
          "internalType": "uint256",
          "name": "balance",
          "type": "uint256"
        },
        {
          "internalType": "uint256",
          "name": "needed",
          "type": "uint256"
        }
      ],
      "name": "ERC20InsufficientBalance",
      "type": "error"
    },
    {
      "inputs": [
        {
          "internalType": "address",
          "name": "approver",
          "type": "address"
        }
      ],
      "name": "ERC20InvalidApprover",
      "type": "error"
    },
    {
      "inputs": [
        {
          "internalType": "address",
          "name": "receiver",
          "type": "address"
        }
      ],
      "name": "ERC20InvalidReceiver",
      "type": "error"
    },
    {
      "inputs": [
        {
          "internalType": "address",
          "name": "sender",
          "type": "address"
        }
      ],
      "name": "ERC20InvalidSender",
      "type": "error"
    },
    {
      "inputs": [
        {
          "internalType": "address",
          "name": "spender",
          "type": "address"
        }
      ],
      "name": "ERC20InvalidSpender",
      "type": "error"
    },
    {
      "inputs": [
        {
          "internalType": "address",
          "name": "owner",
          "type": "address"
        }
      ],
      "name": "OwnableInvalidOwner",
      "type": "error"
    },
    {
      "inputs": [
        {
          "internalType": "address",
          "name": "account",
          "type": "address"
        }
      ],
      "name": "OwnableUnauthorizedAccount",
      "type": "error"
    },
    {
      "anonymous": false,
      "inputs": [
        {
          "indexed": true,
          "internalType": "address",
          "name": "owner",
          "type": "address"
        },
        {
          "indexed": true,
          "internalType": "address",
          "name": "spender",
          "type": "address"
        },
        {
          "indexed": false,
          "internalType": "uint256",
          "name": "value",
          "type": "uint256"
        }
      ],
      "name": "Approval",
      "type": "event"
    },
    {
      "anonymous": false,
      "inputs": [
        {
          "indexed": true,
          "internalType": "address",
          "name": "previousOwner",
          "type": "address"
        },
        {
          "indexed": true,
          "internalType": "address",
          "name": "newOwner",
          "type": "address"
        }
      ],
      "name": "OwnershipTransferred",
      "type": "event"
    },
    {
      "anonymous": false,
      "inputs": [
        {
          "indexed": true,
          "internalType": "address",
          "name": "to",
          "type": "address"
        },
        {
          "indexed": false,
          "internalType": "uint256",
          "name": "amount",
          "type": "uint256"
        }
      ],
      "name": "TokensMinted",
      "type": "event"
    },
    {
      "anonymous": false,
      "inputs": [
        {
          "indexed": true,
          "internalType": "address",
          "name": "from",
          "type": "address"
        },
        {
          "indexed": true,
          "internalType": "address",
          "name": "to",
          "type": "address"
        },
        {
          "indexed": false,
          "internalType": "uint256",
          "name": "value",
          "type": "uint256"
        }
      ],
      "name": "Transfer",
      "type": "event"
    },
    {
      "inputs": [],
      "name": "MAX_SUPPLY",
      "outputs": [
        {
          "internalType": "uint256",
          "name": "",
          "type": "uint256"
        }
      ],
      "stateMutability": "view",
      "type": "function"
    },
    {
      "inputs": [
        {
          "internalType": "address",
          "name": "owner",
          "type": "address"
        },
        {
          "internalType": "address",
          "name": "spender",
          "type": "address"
        }
      ],
      "name": "allowance",
      "outputs": [
        {
          "internalType": "uint256",
          "name": "",
          "type": "uint256"
        }
      ],
      "stateMutability": "view",
      "type": "function"
    },
    {
      "inputs": [
        {
          "internalType": "address",
          "name": "spender",
          "type": "address"
        },
        {
          "internalType": "uint256",
          "name": "value",
          "type": "uint256"
        }
      ],
      "name": "approve",
      "outputs": [
        {
          "internalType": "bool",
          "name": "",
          "type": "bool"
        }
      ],
      "stateMutability": "nonpayable",
      "type": "function"
    },
    {
      "inputs": [
        {
          "internalType": "address",
          "name": "account",
          "type": "address"
        }
      ],
      "name": "balanceOf",
      "outputs": [
        {
          "internalType": "uint256",
          "name": "",
          "type": "uint256"
        }
      ],
      "stateMutability": "view",
      "type": "function"
    },
    {
      "inputs": [
        {
          "internalType": "uint256",
          "name": "value",
          "type": "uint256"
        }
      ],
      "name": "burn",
      "outputs": [],
      "stateMutability": "nonpayable",
      "type": "function"
    },
    {
      "inputs": [
        {
          "internalType": "address",
          "name": "account",
          "type": "address"
        },
        {
          "internalType": "uint256",
          "name": "value",
          "type": "uint256"
        }
      ],
      "name": "burnFrom",
      "outputs": [],
      "stateMutability": "nonpayable",
      "type": "function"
    },
    {
      "inputs": [],
      "name": "decimals",
      "outputs": [
        {
          "internalType": "uint8",
          "name": "",
          "type": "uint8"
        }
      ],
      "stateMutability": "view",
      "type": "function"
    },
    {
      "inputs": [
        {
          "internalType": "address",
          "name": "to",
          "type": "address"
        },
        {
          "internalType": "uint256",
          "name": "amount",
          "type": "uint256"
        }
      ],
      "name": "mint",
      "outputs": [],
      "stateMutability": "nonpayable",
      "type": "function"
    },
    {
      "inputs": [],
      "name": "name",
      "outputs": [
        {
          "internalType": "string",
          "name": "",
          "type": "string"
        }
      ],
      "stateMutability": "view",
      "type": "function"
    },
    {
      "inputs": [],
      "name": "owner",
      "outputs": [
        {
          "internalType": "address",
          "name": "",
          "type": "address"
        }
      ],
      "stateMutability": "view",
      "type": "function"
    },
    {
      "inputs": [],
      "name": "renounceOwnership",
      "outputs": [],
      "stateMutability": "nonpayable",
      "type": "function"
    },
    {
      "inputs": [],
      "name": "symbol",
      "outputs": [
        {
          "internalType": "string",
          "name": "",
          "type": "string"
        }
      ],
      "stateMutability": "view",
      "type": "function"
    },
    {
      "inputs": [],
      "name": "totalSupply",
      "outputs": [
        {
          "internalType": "uint256",
          "name": "",
          "type": "uint256"
        }
      ],
      "stateMutability": "view",
      "type": "function"
    },
    {
      "inputs": [
        {
          "internalType": "address",
          "name": "to",
          "type": "address"
        },
        {
          "internalType": "uint256",
          "name": "value",
          "type": "uint256"
        }
      ],
      "name": "transfer",
      "outputs": [
        {
          "internalType": "bool",
          "name": "",
          "type": "bool"
        }
      ],
      "stateMutability": "nonpayable",
      "type": "function"
    },
    {
      "inputs": [
        {
          "internalType": "address",
          "name": "from",
          "type": "address"
        },
        {
          "internalType": "address",
          "name": "to",
          "type": "address"
        },
        {
          "internalType": "uint256",
          "name": "value",
          "type": "uint256"
        }
      ],
      "name": "transferFrom",
      "outputs": [
        {
          "internalType": "bool",
          "name": "",
          "type": "bool"
        }
      ],
      "stateMutability": "nonpayable",
      "type": "function"
    },
    {
      "inputs": [
        {
          "internalType": "address",
          "name": "newOwner",
          "type": "address"
        }
      ],
      "name": "transferOwnership",
      "outputs": [],
      "stateMutability": "nonpayable",
      "type": "function"
    }
  ],
  "bytecode": "0x60806040523480156200001157600080fd5b5060405162000f5138038062000f51833981016040819052620000349162000317565b806040518060400160405280601681526020017f43727970746f2041726269747261676520546f6b656e000000000000000000008152506040518060400160405280600481526020016321a0a92160e11b8152508160039081620000999190620003f0565b506004620000a88282620003f0565b5050506001600160a01b038116620000db57604051631e4fbdf760e01b8152600060048201526024015b60405180910390fd5b620000e68162000154565b50620000fe816a084595161401484a000000620001a6565b806001600160a01b03167f3f2c9d57c068687834f0de942a9babb9e5acab57d516d3480a3c16ee165a42736a084595161401484a0000006040516200014591815260200190565b60405180910390a250620004e4565b600580546001600160a01b038381166001600160a01b0319831681179093556040519116919082907f8be0079c531659141344cd1fd0a4f28419497f9722a3daafe3b4186f6b6457e090600090a35050565b6001600160a01b038216620001d25760405163ec442f0560e01b815260006004820152602401620000d2565b620001e060008383620001e4565b5050565b6001600160a01b03831662000213578060026000828254620002079190620004bc565b90915550620002879050565b6001600160a01b03831660009081526020819052604090205481811015620002685760405163391434e360e21b81526001600160a01b03851660048201526024810182905260448101839052606401620000d2565b6001600160a01b03841660009081526020819052604090209082900390555b6001600160a01b038216620002a557600280548290039055620002c4565b6001600160a01b03821660009081526020819052604090208054820190555b816001600160a01b0316836001600160a01b03167fddf252ad1be2c89b69c2b068fc378daa952ba7f163c4a11628f55a4df523b3ef836040516200030a91815260200190565b60405180910390a3505050565b6000602082840312156200032a57600080fd5b81516001600160a01b03811681146200034257600080fd5b9392505050565b634e487b7160e01b600052604160045260246000fd5b600181811c908216806200037457607f821691505b6020821081036200039557634e487b7160e01b600052602260045260246000fd5b50919050565b601f821115620003eb576000816000526020600020601f850160051c81016020861015620003c65750805b601f850160051c820191505b81811015620003e757828155600101620003d2565b5050505b505050565b81516001600160401b038111156200040c576200040c62000349565b62000424816200041d84546200035f565b846200039b565b602080601f8311600181146200045c5760008415620004435750858301515b600019600386901b1c1916600185901b178555620003e7565b600085815260208120601f198616915b828110156200048d578886015182559484019460019091019084016200046c565b5085821015620004ac5787850151600019600388901b60f8161c191681555b5050505050600190811b01905550565b80820180821115620004de57634e487b7160e01b600052601160045260246000fd5b92915050565b610a5d80620004f46000396000f3fe608060405234801561001057600080fd5b50600436106101005760003560e01c806370a082311161009757806395d89b411161006657806395d89b4114610213578063a9059cbb1461021b578063dd62ed3e1461022e578063f2fde38b1461026757600080fd5b806370a08231146101b4578063715018a6146101dd57806379cc6790146101e55780638da5cb5b146101f857600080fd5b8063313ce567116100d3578063313ce5671461016b57806332cb6b0c1461017a57806340c10f191461018c57806342966c68146101a157600080fd5b806306fdde0314610105578063095ea7b31461012357806318160ddd1461014657806323b872dd14610158575b600080fd5b61010d61027a565b60405161011a919061088d565b60405180910390f35b6101366101313660046108f8565b61030c565b604051901515815260200161011a565b6002545b60405190815260200161011a565b610136610166366004610922565b610326565b6040516012815260200161011a565b61014a6a084595161401484a00000081565b61019f61019a3660046108f8565b61034a565b005b61019f6101af36600461095e565b610421565b61014a6101c2366004610977565b6001600160a01b031660009081526020819052604090205490565b61019f61042e565b61019f6101f33660046108f8565b610442565b6005546040516001600160a01b03909116815260200161011a565b61010d61045b565b6101366102293660046108f8565b61046a565b61014a61023c366004610999565b6001600160a01b03918216600090815260016020908152604080832093909416825291909152205490565b61019f610275366004610977565b610478565b606060038054610289906109cc565b80601f01602080910402602001604051908101604052809291908181526020018280546102b5906109cc565b80156103025780601f106102d757610100808354040283529160200191610302565b820191906000526020600020905b8154815290600101906020018083116102e557829003601f168201915b5050505050905090565b60003361031a8185856104b3565b60019150505b92915050565b6000336103348582856104c5565b61033f858585610544565b506001949350505050565b6103526105a3565b6a084595161401484a0000008161036860025490565b6103729190610a06565b11156103d05760405162461bcd60e51b815260206004820152602260248201527f417262697472616765546f6b656e3a2065786365656473206d617820737570706044820152616c7960f01b60648201526084015b60405180910390fd5b6103da82826105d0565b816001600160a01b03167f3f2c9d57c068687834f0de942a9babb9e5acab57d516d3480a3c16ee165a42738260405161041591815260200190565b60405180910390a25050565b61042b3382610606565b50565b6104366105a3565b610440600061063c565b565b61044d8233836104c5565b6104578282610606565b5050565b606060048054610289906109cc565b60003361031a818585610544565b6104806105a3565b6001600160a01b0381166104aa57604051631e4fbdf760e01b8152600060048201526024016103c7565b61042b8161063c565b6104c0838383600161068e565b505050565b6001600160a01b0383811660009081526001602090815260408083209386168352929052205460001981101561053e578181101561052f57604051637dc7a0d960e11b81526001600160a01b038416600482015260248101829052604481018390526064016103c7565b61053e8484848403600061068e565b50505050565b6001600160a01b03831661056e57604051634b637e8f60e11b8152600060048201526024016103c7565b6001600160a01b0382166105985760405163ec442f0560e01b8152600060048201526024016103c7565b6104c0838383610763565b6005546001600160a01b031633146104405760405163118cdaa760e01b81523360048201526024016103c7565b6001600160a01b0382166105fa5760405163ec442f0560e01b8152600060048201526024016103c7565b61045760008383610763565b6001600160a01b03821661063057604051634b637e8f60e11b8152600060048201526024016103c7565b61045782600083610763565b600580546001600160a01b038381166001600160a01b0319831681179093556040519116919082907f8be0079c531659141344cd1fd0a4f28419497f9722a3daafe3b4186f6b6457e090600090a35050565b6001600160a01b0384166106b85760405163e602df0560e01b8152600060048201526024016103c7565b6001600160a01b0383166106e257604051634a1406b160e11b8152600060048201526024016103c7565b6001600160a01b038085166000908152600160209081526040808320938716835292905220829055801561053e57826001600160a01b0316846001600160a01b03167f8c5be1e5ebec7d5bd14f71427d1e84f3dd0314c0f7b2291e5b200ac8c7c3b9258460405161075591815260200190565b60405180910390a350505050565b6001600160a01b03831661078e5780600260008282546107839190610a06565b909155506108009050565b6001600160a01b038316600090815260208190526040902054818110156107e15760405163391434e360e21b81526001600160a01b038516600482015260248101829052604481018390526064016103c7565b6001600160a01b03841660009081526020819052604090209082900390555b6001600160a01b03821661081c5760028054829003905561083b565b6001600160a01b03821660009081526020819052604090208054820190555b816001600160a01b0316836001600160a01b03167fddf252ad1be2c89b69c2b068fc378daa952ba7f163c4a11628f55a4df523b3ef8360405161088091815260200190565b60405180910390a3505050565b60006020808352835180602085015260005b818110156108bb5785810183015185820160400152820161089f565b506000604082860101526040601f19601f8301168501019250505092915050565b80356001600160a01b03811681146108f357600080fd5b919050565b6000806040838503121561090b57600080fd5b610914836108dc565b946020939093013593505050565b60008060006060848603121561093757600080fd5b610940846108dc565b925061094e602085016108dc565b9150604084013590509250925092565b60006020828403121561097057600080fd5b5035919050565b60006020828403121561098957600080fd5b610992826108dc565b9392505050565b600080604083850312156109ac57600080fd5b6109b5836108dc565b91506109c3602084016108dc565b90509250929050565b600181811c908216806109e057607f821691505b602082108103610a0057634e487b7160e01b600052602260045260246000fd5b50919050565b8082018082111561032057634e487b7160e01b600052601160045260246000fdfea264697066735822122059a797e15d06ecfb01d132dc1e702df695fbe63b6980b03ab69a600bbf2f968064736f6c63430008180033",
  "linkReferences": {},
  "deployedLinkReferences": {}
}