{
  "_format": "hh-sol-artifact-1",
  "contractName": "ChainlinkPriceOracle",
  "sourceName": "contracts/oracles/ChainlinkPriceOracle.sol",
  "abi": [
    {
      "inputs": [
        {
          "internalType": "address",
          "name": "initialOwner",
          "type": "address"
        },
        {
          "internalType": "address",
          "name": "feedAddress",
          "type": "address"
        }
      ],
      "stateMutability": "nonpayable",
      "type": "constructor"
    },
    {
      "inputs": [
        {
          "internalType": "address",
          "name": "owner",
          "type": "address"
        }
      ],
      "name": "OwnableInvalidOwner",
      "type": "error"
    },
    {
      "inputs": [
        {
          "internalType": "address",
          "name": "account",
          "type": "address"
        }
      ],
      "name": "OwnableUnauthorizedAccount",
      "type": "error"
    },
    {
      "anonymous": false,
      "inputs": [
        {
          "indexed": true,
          "internalType": "address",
          "name": "previousOwner",
          "type": "address"
        },
        {
          "indexed": true,
          "internalType": "address",
          "name": "newOwner",
          "type": "address"
        }
      ],
      "name": "OwnershipTransferred",
      "type": "event"
    },
    {
      "anonymous": false,
      "inputs": [
        {
          "indexed": false,
          "internalType": "uint256",
          "name": "oldValue",
          "type": "uint256"
        },
        {
          "indexed": false,
          "internalType": "uint256",
          "name": "newValue",
          "type": "uint256"
        }
      ],
      "name": "StalenessThresholdUpdated",
      "type": "event"
    },
    {
      "inputs": [],
      "name": "decimals",
      "outputs": [
        {
          "internalType": "uint8",
          "name": "",
          "type": "uint8"
        }
      ],
      "stateMutability": "pure",
      "type": "function"
    },
    {
      "inputs": [],
      "name": "feed",
      "outputs": [
        {
          "internalType": "contract AggregatorV3Interface",
          "name": "",
          "type": "address"
        }
      ],
      "stateMutability": "view",
      "type": "function"
    },
    {
      "inputs": [],
      "name": "getPrice",
      "outputs": [
        {
          "internalType": "uint256",
          "name": "",
          "type": "uint256"
        }
      ],
      "stateMutability": "view",
      "type": "function"
    },
    {
      "inputs": [],
      "name": "owner",
      "outputs": [
        {
          "internalType": "address",
          "name": "",
          "type": "address"
        }
      ],
      "stateMutability": "view",
      "type": "function"
    },
    {
      "inputs": [],
      "name": "renounceOwnership",
      "outputs": [],
      "stateMutability": "nonpayable",
      "type": "function"
    },
    {
      "inputs": [
        {
          "internalType": "uint256",
          "name": "newThreshold",
          "type": "uint256"
        }
      ],
      "name": "setStalenessThreshold",
      "outputs": [],
      "stateMutability": "nonpayable",
      "type": "function"
    },
    {
      "inputs": [],
      "name": "stalenessThreshold",
      "outputs": [
        {
          "internalType": "uint256",
          "name": "",
          "type": "uint256"
        }
      ],
      "stateMutability": "view",
      "type": "function"
    },
    {
      "inputs": [
        {
          "internalType": "address",
          "name": "newOwner",
          "type": "address"
        }
      ],
      "name": "transferOwnership",
      "outputs": [],
      "stateMutability": "nonpayable",
      "type": "function"
    }
  ],
  "bytecode": "0x60a060405234801561001057600080fd5b506040516108c53803806108c583398101604081905261002f9161014e565b816001600160a01b03811661005f57604051631e4fbdf760e01b8152600060048201526024015b60405180910390fd5b610068816100e2565b506001600160a01b0381166100ca5760405162461bcd60e51b815260206004820152602260248201527f436861696e6c696e6b50726963654f7261636c653a207a65726f206164647265604482015261737360f01b6064820152608401610056565b6001600160a01b031660805250610e10600155610181565b600080546001600160a01b038381166001600160a01b0319831681178455604051919092169283917f8be0079c531659141344cd1fd0a4f28419497f9722a3daafe3b4186f6b6457e09190a35050565b80516001600160a01b038116811461014957600080fd5b919050565b6000806040838503121561016157600080fd5b61016a83610132565b915061017860208401610132565b90509250929050565b60805161071c6101a96000396000818160a60152818161015b01526102ac015261071c6000f3fe608060405234801561001057600080fd5b50600436106100885760003560e01c806398d5fdca1161005b57806398d5fdca146100fb578063a84f6ebb14610111578063f2fde38b1461011a578063fb01e7f21461012d57600080fd5b8063313ce5671461008d57806337a7b7d8146100a1578063715018a6146100e05780638da5cb5b146100ea575b600080fd5b604051601281526020015b60405180910390f35b6100c87f000000000000000000000000000000000000000000000000000000000000000081565b6040516001600160a01b039091168152602001610098565b6100e8610140565b005b6000546001600160a01b03166100c8565b610103610154565b604051908152602001610098565b61010360015481565b6100e86101283660046104b9565b610359565b6100e861013b3660046104e9565b610397565b61014861043c565b6101526000610469565b565b60008060007f00000000000000000000000000000000000000000000000000000000000000006001600160a01b031663feaf968c6040518163ffffffff1660e01b815260040160a060405180830381865afa1580156101b7573d6000803e3d6000fd5b505050506040513d601f19601f820116820180604052508101906101db9190610521565b50935050925050600082136102435760405162461bcd60e51b815260206004820152602360248201527f436861696e6c696e6b50726963654f7261636c653a20696e76616c696420707260448201526269636560e81b60648201526084015b60405180910390fd5b6001546102508242610587565b11156102a85760405162461bcd60e51b815260206004820152602160248201527f436861696e6c696e6b50726963654f7261636c653a207374616c6520707269636044820152606560f81b606482015260840161023a565b60007f00000000000000000000000000000000000000000000000000000000000000006001600160a01b031663313ce5676040518163ffffffff1660e01b8152600401602060405180830381865afa158015610308573d6000803e3d6000fd5b505050506040513d601f19601f8201168201806040525081019061032c91906105a0565b9050600061033b8260126105c3565b61034690600a6106c0565b61035090856106cf565b95945050505050565b61036161043c565b6001600160a01b03811661038b57604051631e4fbdf760e01b81526000600482015260240161023a565b61039481610469565b50565b61039f61043c565b600081116103fb5760405162461bcd60e51b8152602060048201526024808201527f436861696e6c696e6b50726963654f7261636c653a207a65726f2074687265736044820152631a1bdb1960e21b606482015260840161023a565b60015460408051918252602082018390527f2cfed7ac4be4a0009ef1af32ea2de149e0122938cb9aa4b3f7df3be6da1055e9910160405180910390a1600155565b6000546001600160a01b031633146101525760405163118cdaa760e01b815233600482015260240161023a565b600080546001600160a01b038381166001600160a01b0319831681178455604051919092169283917f8be0079c531659141344cd1fd0a4f28419497f9722a3daafe3b4186f6b6457e09190a35050565b6000602082840312156104cb57600080fd5b81356001600160a01b03811681146104e257600080fd5b9392505050565b6000602082840312156104fb57600080fd5b5035919050565b805169ffffffffffffffffffff8116811461051c57600080fd5b919050565b600080600080600060a0868803121561053957600080fd5b61054286610502565b945060208601519350604086015192506060860151915061056560808701610502565b90509295509295909350565b634e487b7160e01b600052601160045260246000fd5b8181038181111561059a5761059a610571565b92915050565b6000602082840312156105b257600080fd5b815160ff811681146104e257600080fd5b60ff828116828216039081111561059a5761059a610571565b600181815b808511156106175781600019048211156105fd576105fd610571565b8085161561060a57918102915b93841c93908002906105e1565b509250929050565b60008261062e5750600161059a565b8161063b5750600061059a565b8160018114610651576002811461065b57610677565b600191505061059a565b60ff84111561066c5761066c610571565b50506001821b61059a565b5060208310610133831016604e8410600b841016171561069a575081810a61059a565b6106a483836105dc565b80600019048211156106b8576106b8610571565b029392505050565b60006104e260ff84168361061f565b808202811582820484141761059a5761059a61057156fea264697066735822122083bbd5097b0fc3496aff8fe0d120d7ac7fcc2503a72f71f37f1c501f6217226164736f6c63430008180033",
  "linkReferences": {},
  "deployedLinkReferences": {}
}