{
  "_format": "hh-sol-artifact-1",
  "contractName": "MockPerpEngine",
  "sourceName": "contracts/core/MockPerpEngine.sol",
  "abi": [
    {
      "inputs": [
        {
          "internalType": "address",
          "name": "initialOwner",
          "type": "address"
        },
        {
          "internalType": "address",
          "name": "collateralToken_",
          "type": "address"
        },
        {
          "internalType": "address",
          "name": "oracle_",
          "type": "address"
        }
      ],
      "stateMutability": "nonpayable",
      "type": "constructor"
    },
    {
      "inputs": [
        {
          "internalType": "address",
          "name": "owner",
          "type": "address"
        }
      ],
      "name": "OwnableInvalidOwner",
      "type": "error"
    },
    {
      "inputs": [
        {
          "internalType": "address",
          "name": "account",
          "type": "address"
        }
      ],
      "name": "OwnableUnauthorizedAccount",
      "type": "error"
    },
    {
      "inputs": [],
      "name": "ReentrancyGuardReentrantCall",
      "type": "error"
    },
    {
      "inputs": [
        {
          "internalType": "address",
          "name": "token",
          "type": "address"
        }
      ],
      "name": "SafeERC20FailedOperation",
      "type": "error"
    },
    {
      "anonymous": false,
      "inputs": [
        {
          "indexed": true,
          "internalType": "address",
          "name": "user",
          "type": "address"
        },
        {
          "indexed": false,
          "internalType": "int256",
          "name": "amount",
          "type": "int256"
        },
        {
          "indexed": false,
          "internalType": "uint256",
          "name": "timestamp",
          "type": "uint256"
        }
      ],
      "name": "FundingAccrued",
      "type": "event"
    },
    {
      "anonymous": false,
      "inputs": [
        {
          "indexed": false,
          "internalType": "int256",
          "name": "oldRate",
          "type": "int256"
        },
        {
          "indexed": false,
          "internalType": "int256",
          "name": "newRate",
          "type": "int256"
        }
      ],
      "name": "FundingRateUpdated",
      "type": "event"
    },
    {
      "anonymous": false,
      "inputs": [
        {
          "indexed": true,
          "internalType": "address",
          "name": "user",
          "type": "address"
        },
        {
          "indexed": true,
          "internalType": "address",
          "name": "liquidator",
          "type": "address"
        },
        {
          "indexed": false,
          "internalType": "uint256",
          "name": "timestamp",
          "type": "uint256"
        }
      ],
      "name": "Liquidated",
      "type": "event"
    },
    {
      "anonymous": false,
      "inputs": [
        {
          "indexed": false,
          "internalType": "uint256",
          "name": "oldValue",
          "type": "uint256"
        },
        {
          "indexed": false,
          "internalType": "uint256",
          "name": "newValue",
          "type": "uint256"
        }
      ],
      "name": "MaintenanceMarginUpdated",
      "type": "event"
    },
    {
      "anonymous": false,
      "inputs": [
        {
          "indexed": true,
          "internalType": "address",
          "name": "newOracle",
          "type": "address"
        }
      ],
      "name": "OracleUpdated",
      "type": "event"
    },
    {
      "anonymous": false,
      "inputs": [
        {
          "indexed": true,
          "internalType": "address",
          "name": "previousOwner",
          "type": "address"
        },
        {
          "indexed": true,
          "internalType": "address",
          "name": "newOwner",
          "type": "address"
        }
      ],
      "name": "OwnershipTransferred",
      "type": "event"
    },
    {
      "anonymous": false,
      "inputs": [
        {
          "indexed": true,
          "internalType": "address",
          "name": "user",
          "type": "address"
        },
        {
          "indexed": false,
          "internalType": "uint256",
          "name": "notional",
          "type": "uint256"
        },
        {
          "indexed": false,
          "internalType": "int256",
          "name": "pricePnL",
          "type": "int256"
        },
        {
          "indexed": false,
          "internalType": "int256",
          "name": "fundingPnL",
          "type": "int256"
        },
        {
          "indexed": false,
          "internalType": "int256",
          "name": "netPnL",
          "type": "int256"
        },
        {
          "indexed": false,
          "internalType": "uint256",
          "name": "proceedsReturned",
          "type": "uint256"
        },
        {
          "indexed": false,
          "internalType": "uint256",
          "name": "timestamp",
          "type": "uint256"
        }
      ],
      "name": "PositionClosed",
      "type": "event"
    },
    {
      "anonymous": false,
      "inputs": [
        {
          "indexed": true,
          "internalType": "address",
          "name": "user",
          "type": "address"
        },
        {
          "indexed": false,
          "internalType": "uint256",
          "name": "notional",
          "type": "uint256"
        },
        {
          "indexed": false,
          "internalType": "uint256",
          "name": "collateral",
          "type": "uint256"
        },
        {
          "indexed": false,
          "internalType": "uint256",
          "name": "entryPrice",
          "type": "uint256"
        },
        {
          "indexed": false,
          "internalType": "uint256",
          "name": "timestamp",
          "type": "uint256"
        }
      ],
      "name": "PositionOpened",
      "type": "event"
    },
    {
      "inputs": [
        {
          "internalType": "address",
          "name": "user",
          "type": "address"
        }
      ],
      "name": "accrueFunding",
      "outputs": [],
      "stateMutability": "nonpayable",
      "type": "function"
    },
    {
      "inputs": [],
      "name": "closeShort",
      "outputs": [
        {
          "internalType": "uint256",
          "name": "netProceeds",
          "type": "uint256"
        }
      ],
      "stateMutability": "nonpayable",
      "type": "function"
    },
    {
      "inputs": [],
      "name": "collateralToken",
      "outputs": [
        {
          "internalType": "contract IERC20",
          "name": "",
          "type": "address"
        }
      ],
      "stateMutability": "view",
      "type": "function"
    },
    {
      "inputs": [],
      "name": "dailyFundingRateBps",
      "outputs": [
        {
          "internalType": "int256",
          "name": "",
          "type": "int256"
        }
      ],
      "stateMutability": "view",
      "type": "function"
    },
    {
      "inputs": [
        {
          "internalType": "address",
          "name": "user",
          "type": "address"
        }
      ],
      "name": "getMarginRatio",
      "outputs": [
        {
          "internalType": "uint256",
          "name": "ratioBps",
          "type": "uint256"
        }
      ],
      "stateMutability": "view",
      "type": "function"
    },
    {
      "inputs": [
        {
          "internalType": "address",
          "name": "user",
          "type": "address"
        }
      ],
      "name": "getPosition",
      "outputs": [
        {
          "components": [
            {
              "internalType": "uint256",
              "name": "notional",
              "type": "uint256"
            },
            {
              "internalType": "uint256",
              "name": "collateral",
              "type": "uint256"
            },
            {
              "internalType": "uint256",
              "name": "entryPrice",
              "type": "uint256"
            },
            {
              "internalType": "uint256",
              "name": "entryTimestamp",
              "type": "uint256"
            },
            {
              "internalType": "uint256",
              "name": "lastFundingTimestamp",
              "type": "uint256"
            },
            {
              "internalType": "int256",
              "name": "cumulativeFunding",
              "type": "int256"
            },
            {
              "internalType": "bool",
              "name": "isOpen",
              "type": "bool"
            }
          ],
          "internalType": "struct IPerpEngine.Position",
          "name": "",
          "type": "tuple"
        }
      ],
      "stateMutability": "view",
      "type": "function"
    },
    {
      "inputs": [
        {
          "internalType": "address",
          "name": "user",
          "type": "address"
        }
      ],
      "name": "getUnrealizedPnL",
      "outputs": [
        {
          "internalType": "int256",
          "name": "pnl",
          "type": "int256"
        }
      ],
      "stateMutability": "view",
      "type": "function"
    },
    {
      "inputs": [
        {
          "internalType": "address",
          "name": "user",
          "type": "address"
        }
      ],
      "name": "isLiquidatable",
      "outputs": [
        {
          "internalType": "bool",
          "name": "",
          "type": "bool"
        }
      ],
      "stateMutability": "view",
      "type": "function"
    },
    {
      "inputs": [
        {
          "internalType": "address",
          "name": "user",
          "type": "address"
        }
      ],
      "name": "liquidate",
      "outputs": [],
      "stateMutability": "nonpayable",
      "type": "function"
    },
    {
      "inputs": [],
      "name": "maintenanceMarginBps",
      "outputs": [
        {
          "internalType": "uint256",
          "name": "",
          "type": "uint256"
        }
      ],
      "stateMutability": "view",
      "type": "function"
    },
    {
      "inputs": [
        {
          "internalType": "uint256",
          "name": "notional",
          "type": "uint256"
        },
        {
          "internalType": "uint256",
          "name": "collateral",
          "type": "uint256"
        }
      ],
      "name": "openShort",
      "outputs": [],
      "stateMutability": "nonpayable",
      "type": "function"
    },
    {
      "inputs": [],
      "name": "oracle",
      "outputs": [
        {
          "internalType": "contract IPriceOracle",
          "name": "",
          "type": "address"
        }
      ],
      "stateMutability": "view",
      "type": "function"
    },
    {
      "inputs": [],
      "name": "owner",
      "outputs": [
        {
          "internalType": "address",
          "name": "",
          "type": "address"
        }
      ],
      "stateMutability": "view",
      "type": "function"
    },
    {
      "inputs": [],
      "name": "renounceOwnership",
      "outputs": [],
      "stateMutability": "nonpayable",
      "type": "function"
    },
    {
      "inputs": [
        {
          "internalType": "int256",
          "name": "newRate",
          "type": "int256"
        }
      ],
      "name": "setDailyFundingRateBps",
      "outputs": [],
      "stateMutability": "nonpayable",
      "type": "function"
    },
    {
      "inputs": [
        {
          "internalType": "uint256",
          "name": "newValue",
          "type": "uint256"
        }
      ],
      "name": "setMaintenanceMarginBps",
      "outputs": [],
      "stateMutability": "nonpayable",
      "type": "function"
    },
    {
      "inputs": [
        {
          "internalType": "address",
          "name": "newOracle",
          "type": "address"
        }
      ],
      "name": "setOracle",
      "outputs": [],
      "stateMutability": "nonpayable",
      "type": "function"
    },
    {
      "inputs": [
        {
          "internalType": "address",
          "name": "newOwner",
          "type": "address"
        }
      ],
      "name": "transferOwnership",
      "outputs": [],
      "stateMutability": "nonpayable",
      "type": "function"
    }
  ],
  "bytecode": "0x60a06040523480156200001157600080fd5b50604051620018ab380380620018ab8339810160408190526200003491620001e8565b826001600160a01b0381166200006557604051631e4fbdf760e01b8152600060048201526024015b60405180910390fd5b62000070816200017b565b5060017f9b779b17422d0df92223018b32b4d1fa46e071723d6817e2486d003becc55f00556001600160a01b038216620000ed5760405162461bcd60e51b815260206004820152601f60248201527f4d6f636b50657270456e67696e653a207a65726f20636f6c6c61746572616c0060448201526064016200005c565b6001600160a01b038116620001455760405162461bcd60e51b815260206004820152601b60248201527f4d6f636b50657270456e67696e653a207a65726f206f7261636c65000000000060448201526064016200005c565b6001600160a01b03918216608052600180546001600160a01b0319169190921617905550600360028190556101f4905562000232565b600080546001600160a01b038381166001600160a01b0319831681178455604051919092169283917f8be0079c531659141344cd1fd0a4f28419497f9722a3daafe3b4186f6b6457e09190a35050565b80516001600160a01b0381168114620001e357600080fd5b919050565b600080600060608486031215620001fe57600080fd5b6200020984620001cb565b92506200021960208501620001cb565b91506200022960408501620001cb565b90509250925092565b6080516116416200026a600039600081816102b10152818161062c0152818161099c01528181610ed40152610f5a01526116416000f3fe608060405234801561001057600080fd5b50600436106101165760003560e01c80635f36c869116100a25780638da5cb5b116100715780638da5cb5b14610292578063a719f943146102a3578063b2016bd4146102ac578063f2fde38b146102d3578063f8432a1b146102e657600080fd5b80635f36c86914610239578063715018a61461024c5780637adbf973146102545780637dc0d1d01461026757600080fd5b80632e33784c116100e95780632e33784c146101d65780632f865568146101e957806332cc0a36146101fc578063544305bf1461021357806354f4ac871461022657600080fd5b806302c472131461011b578063042e02cf146101305780631266a6191461015857806316c197391461016b575b600080fd5b61012e610129366004611405565b6102ee565b005b61014361013e36600461141e565b610337565b60405190151581526020015b60405180910390f35b61012e610166366004611447565b6103d7565b61017e61017936600461141e565b61073d565b60405161014f9190600060e082019050825182526020830151602083015260408301516040830152606083015160608301526080830151608083015260a083015160a083015260c0830151151560c083015292915050565b61012e6101e436600461141e565b6107ef565b61012e6101f736600461141e565b610836565b61020560025481565b60405190815260200161014f565b61020561022136600461141e565b610a1b565b61020561023436600461141e565b610b18565b61012e610247366004611405565b610bce565b61012e610c74565b61012e61026236600461141e565b610c88565b60015461027a906001600160a01b031681565b6040516001600160a01b03909116815260200161014f565b6000546001600160a01b031661027a565b61020560035481565b61027a7f000000000000000000000000000000000000000000000000000000000000000081565b61012e6102e136600461141e565b610d30565b610205610d6b565b6102f6611000565b60025460408051918252602082018390527f83b8bd3a9f97bed75f923bfd5746ac7dbb823ba73c2e68e4fa906e29e3da4ab4910160405180910390a1600255565b6001600160a01b0381166000908152600460205260408120600681015460ff166103645750600092915050565b6003546040516354f4ac8760e01b81526001600160a01b038516600482015230906354f4ac8790602401602060405180830381865afa1580156103ab573d6000803e3d6000fd5b505050506040513d601f19601f820116820180604052508101906103cf9190611469565b109392505050565b6103df61102d565b600082116104345760405162461bcd60e51b815260206004820152601d60248201527f4d6f636b50657270456e67696e653a207a65726f206e6f74696f6e616c00000060448201526064015b60405180910390fd5b600081116104845760405162461bcd60e51b815260206004820152601f60248201527f4d6f636b50657270456e67696e653a207a65726f20636f6c6c61746572616c00604482015260640161042b565b818111156104e25760405162461bcd60e51b815260206004820152602560248201527f4d6f636b50657270456e67696e653a20636f6c6c61746572616c203e206e6f746044820152641a5bdb985b60da1b606482015260840161042b565b3360009081526004602052604090206006015460ff16156105535760405162461bcd60e51b815260206004820152602560248201527f4d6f636b50657270456e67696e653a20706f736974696f6e20616c72656164796044820152641037b832b760d91b606482015260840161042b565b60015460408051634c6afee560e11b815290516000926001600160a01b0316916398d5fdca9160048083019260209291908290030181865afa15801561059d573d6000803e3d6000fd5b505050506040513d601f19601f820116820180604052508101906105c19190611469565b90506000811161061f5760405162461bcd60e51b8152602060048201526024808201527f4d6f636b50657270456e67696e653a20696e76616c6964206f7261636c6520706044820152637269636560e01b606482015260840161042b565b6106546001600160a01b037f000000000000000000000000000000000000000000000000000000000000000016333085611049565b6040805160e08101825284815260208082018581528284018581524260608086018281526080808801848152600060a08a01818152600160c08c01818152338085526004808e52948f90209d518e559a51918d0191909155975160028c0155935160038b01559051908901559051600588015592516006909601805460ff1916961515969096179095558551898152938401889052948301869052928201939093527f7a1ae8665412b69d0fd9db37f50dfa14e31fd10c7c46a9b5e22214e1b9b25eda910160405180910390a25061073960016000805160206115ec83398151915255565b5050565b61077f6040518060e001604052806000815260200160008152602001600081526020016000815260200160008152602001600081526020016000151581525090565b506001600160a01b0316600090815260046020818152604092839020835160e0810185528154815260018201549281019290925260028101549382019390935260038301546060820152908201546080820152600582015460a082015260069091015460ff16151560c082015290565b6001600160a01b03811660009081526004602052604090206006015460ff1661082a5760405162461bcd60e51b815260040161042b90611482565b61083381611085565b50565b61083e61102d565b6001600160a01b03811660009081526004602052604090206006015460ff166108795760405162461bcd60e51b815260040161042b90611482565b60405163042e02cf60e01b81526001600160a01b0382166004820152309063042e02cf90602401602060405180830381865afa1580156108bd573d6000803e3d6000fd5b505050506040513d601f19601f820116820180604052508101906108e191906114b7565b6109395760405162461bcd60e51b815260206004820152602360248201527f4d6f636b50657270456e67696e653a20706f736974696f6e206973206865616c60448201526274687960e81b606482015260840161042b565b6001600160a01b0381166000908152600460208190526040822060018101805484835590849055600282018490556003820184905591810183905560058101929092556006909101805460ff1916905580156109c3576109c36001600160a01b037f0000000000000000000000000000000000000000000000000000000000000000163383611145565b60405142815233906001600160a01b038416907fde0aa27286f5cb3a4ed853dc4823ead62d63e92cdf13de09d6aece56970721a49060200160405180910390a35061083360016000805160206115ec83398151915255565b6001600160a01b0381166000908152600460205260408120600681015460ff16610a485750600092915050565b60015460408051634c6afee560e11b815290516000926001600160a01b0316916398d5fdca9160048083019260209291908290030181865afa158015610a92573d6000803e3d6000fd5b505050506040513d601f19601f82011682018060405250810190610ab69190611469565b90506000610acd836000015484600201548461117f565b90506000610af18460000154600254866004015442610aec91906114ef565b611237565b905080846005015483610b049190611508565b610b0e9190611508565b9695505050505050565b6001600160a01b0381166000908152600460205260408120600681015460ff16610b46575060001992915050565b60405163544305bf60e01b81526001600160a01b0384166004820152600090309063544305bf90602401602060405180830381865afa158015610b8d573d6000803e3d6000fd5b505050506040513d601f19601f82011682018060405250810190610bb19190611469565b9050610bc6826001015482846000015461125d565b949350505050565b610bd6611000565b600081118015610be7575061271081105b610c335760405162461bcd60e51b815260206004820152601e60248201527f4d6f636b50657270456e67696e653a20696e76616c6964206d617267696e0000604482015260640161042b565b60035460408051918252602082018390527f543d1e07bf318dc881da37b7119a99d0a94751d40ccac7a58fdd16612ac1c01d910160405180910390a1600355565b610c7c611000565b610c86600061129d565b565b610c90611000565b6001600160a01b038116610ce65760405162461bcd60e51b815260206004820152601b60248201527f4d6f636b50657270456e67696e653a207a65726f206f7261636c650000000000604482015260640161042b565b600180546001600160a01b0319166001600160a01b0383169081179091556040517f3df77beb5db05fcdd70a30fc8adf3f83f9501b68579455adbd100b818094039490600090a250565b610d38611000565b6001600160a01b038116610d6257604051631e4fbdf760e01b81526000600482015260240161042b565b6108338161129d565b6000610d7561102d565b336000908152600460205260409020600681015460ff16610da85760405162461bcd60e51b815260040161042b90611482565b610db133611085565b60015460408051634c6afee560e11b815290516000926001600160a01b0316916398d5fdca9160048083019260209291908290030181865afa158015610dfb573d6000803e3d6000fd5b505050506040513d601f19601f82011682018060405250810190610e1f9190611469565b90506000610e36836000015484600201548461117f565b90506000836005015482610e4a9190611508565b90506000818560010154610e5e9190611508565b600180870154336000908152600460208190526040822082815593840182905560028401829055600384018290558301819055600583018190556006909201805460ff19169055919250821315610f83576040516370a0823160e01b815230600482015291965086916000906001600160a01b037f000000000000000000000000000000000000000000000000000000000000000016906370a0823190602401602060405180830381865afa158015610f1b573d6000803e3d6000fd5b505050506040513d601f19601f82011682018060405250810190610f3f9190611469565b905080881115610f4d578097505b610f816001600160a01b037f000000000000000000000000000000000000000000000000000000000000000016338a611145565b505b600586015460408051838152602081018790529081019190915260608101849052608081018890524260a082015233907f9756f54b778434ad7a0afdfef597dd063fa5ed934abf01e378220515e6ccbee09060c00160405180910390a2505050505050610ffd60016000805160206115ec83398151915255565b90565b6000546001600160a01b03163314610c865760405163118cdaa760e01b815233600482015260240161042b565b6110356112ed565b60026000805160206115ec83398151915255565b611057848484846001611326565b61107f57604051635274afe760e01b81526001600160a01b038516600482015260240161042b565b50505050565b6001600160a01b03811660009081526004602081905260408220908101549091906110b090426114ef565b9050806000036110bf57505050565b60006110d2836000015460025484611237565b9050808360050160008282546110e89190611508565b909155505042600484018190556040516001600160a01b038616917fc3a570c67b82ebedc04bffd5e4a5c76030d343bb23fbdd449c0ab33e803ca0f19161113791858252602082015260400190565b60405180910390a250505050565b6111528383836001611398565b61117a57604051635274afe760e01b81526001600160a01b038416600482015260240161042b565b505050565b60008083116111d05760405162461bcd60e51b815260206004820152601f60248201527f4172626974726167654d6174683a207a65726f20656e74727920707269636500604482015260640161042b565b82821061120b576000836111e481856114ef565b6111ee9087611530565b6111f8919061155d565b905061120381611571565b915050611230565b60008361121884826114ef565b6112229087611530565b61122c919061155d565b9150505b9392505050565b600063337f980082611249858761158d565b611253919061158d565b610bc691906115bd565b6000816000036112705750600019611230565b600061127c8486611508565b905060008113611290576000915050611230565b8261122282612710611530565b600080546001600160a01b038381166001600160a01b0319831681178455604051919092169283917f8be0079c531659141344cd1fd0a4f28419497f9722a3daafe3b4186f6b6457e09190a35050565b611308600060026000805160206115ec8339815191526113fe565b15610c8657604051633ee5aeb560e01b815260040160405180910390fd5b6040516323b872dd60e01b60008181526001600160a01b038781166004528616602452604485905291602083606481808c5af192506001600051148316611386578383151615611379573d6000823e3d81fd5b6000883b113d1516831692505b60405250600060605295945050505050565b60405163a9059cbb60e01b60008181526001600160a01b038616600452602485905291602083604481808b5af1925060016000511483166113f25783831516156113e5573d6000823e3d81fd5b6000873b113d1516831692505b60405250949350505050565b5414919050565b60006020828403121561141757600080fd5b5035919050565b60006020828403121561143057600080fd5b81356001600160a01b038116811461123057600080fd5b6000806040838503121561145a57600080fd5b50508035926020909101359150565b60006020828403121561147b57600080fd5b5051919050565b6020808252818101527f4d6f636b50657270456e67696e653a206e6f206f70656e20706f736974696f6e604082015260600190565b6000602082840312156114c957600080fd5b8151801515811461123057600080fd5b634e487b7160e01b600052601160045260246000fd5b81810381811115611502576115026114d9565b92915050565b8082018281126000831280158216821582161715611528576115286114d9565b505092915050565b8082028115828204841417611502576115026114d9565b634e487b7160e01b600052601260045260246000fd5b60008261156c5761156c611547565b500490565b6000600160ff1b8201611586576115866114d9565b5060000390565b80820260008212600160ff1b841416156115a9576115a96114d9565b8181058314821517611502576115026114d9565b6000826115cc576115cc611547565b600160ff1b8214600019841416156115e6576115e66114d9565b50059056fe9b779b17422d0df92223018b32b4d1fa46e071723d6817e2486d003becc55f00a26469706673582212209e7ffbeb2f6bea1ca9bcb1f7336392d71ce41db3cbd57615cbec349940c2153464736f6c63430008180033",
  "linkReferences": {},
  "deployedLinkReferences": {}
}