{
  "_format": "hh-sol-artifact-1",
  "contractName": "StrategyVault",
  "sourceName": "contracts/core/StrategyVault.sol",
  "abi": [
    {
      "inputs": [
        {
          "internalType": "address",
          "name": "initialOwner",
          "type": "address"
        },
        {
          "internalType": "address",
          "name": "usdc_",
          "type": "address"
        },
        {
          "internalType": "address",
          "name": "perpEngine_",
          "type": "address"
        },
        {
          "internalType": "address",
          "name": "oracle_",
          "type": "address"
        }
      ],
      "stateMutability": "nonpayable",
      "type": "constructor"
    },
    {
      "inputs": [
        {
          "internalType": "address",
          "name": "owner",
          "type": "address"
        }
      ],
      "name": "OwnableInvalidOwner",
      "type": "error"
    },
    {
      "inputs": [
        {
          "internalType": "address",
          "name": "account",
          "type": "address"
        }
      ],
      "name": "OwnableUnauthorizedAccount",
      "type": "error"
    },
    {
      "inputs": [],
      "name": "ReentrancyGuardReentrantCall",
      "type": "error"
    },
    {
      "inputs": [
        {
          "internalType": "address",
          "name": "token",
          "type": "address"
        }
      ],
      "name": "SafeERC20FailedOperation",
      "type": "error"
    },
    {
      "anonymous": false,
      "inputs": [
        {
          "indexed": false,
          "internalType": "string",
          "name": "reason",
          "type": "string"
        },
        {
          "indexed": false,
          "internalType": "int256",
          "name": "netPnL",
          "type": "int256"
        }
      ],
      "name": "AutoExitTriggered",
      "type": "event"
    },
    {
      "anonymous": false,
      "inputs": [
        {
          "indexed": true,
          "internalType": "address",
          "name": "user",
          "type": "address"
        },
        {
          "indexed": false,
          "internalType": "uint256",
          "name": "usdcAmount",
          "type": "uint256"
        },
        {
          "indexed": false,
          "internalType": "uint256",
          "name": "shares",
          "type": "uint256"
        }
      ],
      "name": "Deposited",
      "type": "event"
    },
    {
      "anonymous": false,
      "inputs": [
        {
          "indexed": false,
          "internalType": "int256",
          "name": "spotPricePnL",
          "type": "int256"
        },
        {
          "indexed": false,
          "internalType": "int256",
          "name": "shortPricePnL",
          "type": "int256"
        },
        {
          "indexed": false,
          "internalType": "int256",
          "name": "fundingPnL",
          "type": "int256"
        },
        {
          "indexed": false,
          "internalType": "int256",
          "name": "netPnL",
          "type": "int256"
        },
        {
          "indexed": false,
          "internalType": "uint256",
          "name": "proceedsReturned",
          "type": "uint256"
        }
      ],
      "name": "HedgeClosed",
      "type": "event"
    },
    {
      "anonymous": false,
      "inputs": [
        {
          "indexed": false,
          "internalType": "uint256",
          "name": "notional",
          "type": "uint256"
        },
        {
          "indexed": false,
          "internalType": "uint256",
          "name": "collateral",
          "type": "uint256"
        },
        {
          "indexed": false,
          "internalType": "uint256",
          "name": "entryPrice",
          "type": "uint256"
        },
        {
          "indexed": false,
          "internalType": "int256",
          "name": "carryScore",
          "type": "int256"
        }
      ],
      "name": "HedgeOpened",
      "type": "event"
    },
    {
      "anonymous": false,
      "inputs": [
        {
          "indexed": true,
          "internalType": "address",
          "name": "previousOwner",
          "type": "address"
        },
        {
          "indexed": true,
          "internalType": "address",
          "name": "newOwner",
          "type": "address"
        }
      ],
      "name": "OwnershipTransferred",
      "type": "event"
    },
    {
      "anonymous": false,
      "inputs": [
        {
          "indexed": true,
          "internalType": "address",
          "name": "user",
          "type": "address"
        },
        {
          "indexed": false,
          "internalType": "uint256",
          "name": "shares",
          "type": "uint256"
        },
        {
          "indexed": false,
          "internalType": "uint256",
          "name": "usdcReturned",
          "type": "uint256"
        }
      ],
      "name": "Withdrawn",
      "type": "event"
    },
    {
      "inputs": [],
      "name": "autoClose",
      "outputs": [],
      "stateMutability": "nonpayable",
      "type": "function"
    },
    {
      "inputs": [],
      "name": "benchmarkRateBps",
      "outputs": [
        {
          "internalType": "uint256",
          "name": "",
          "type": "uint256"
        }
      ],
      "stateMutability": "view",
      "type": "function"
    },
    {
      "inputs": [],
      "name": "closeHedge",
      "outputs": [],
      "stateMutability": "nonpayable",
      "type": "function"
    },
    {
      "inputs": [],
      "name": "costEstimateBps",
      "outputs": [
        {
          "internalType": "uint256",
          "name": "",
          "type": "uint256"
        }
      ],
      "stateMutability": "view",
      "type": "function"
    },
    {
      "inputs": [],
      "name": "currentDailyFundingRateBps",
      "outputs": [
        {
          "internalType": "int256",
          "name": "",
          "type": "int256"
        }
      ],
      "stateMutability": "view",
      "type": "function"
    },
    {
      "inputs": [
        {
          "internalType": "uint256",
          "name": "usdcAmount",
          "type": "uint256"
        }
      ],
      "name": "deposit",
      "outputs": [],
      "stateMutability": "nonpayable",
      "type": "function"
    },
    {
      "inputs": [
        {
          "internalType": "address",
          "name": "user",
          "type": "address"
        }
      ],
      "name": "getUserValue",
      "outputs": [
        {
          "internalType": "uint256",
          "name": "usdcValue",
          "type": "uint256"
        }
      ],
      "stateMutability": "view",
      "type": "function"
    },
    {
      "inputs": [],
      "name": "getVaultState",
      "outputs": [
        {
          "components": [
            {
              "internalType": "uint256",
              "name": "totalDeposited",
              "type": "uint256"
            },
            {
              "internalType": "uint256",
              "name": "totalShares",
              "type": "uint256"
            },
            {
              "internalType": "uint256",
              "name": "hedgeCollateral",
              "type": "uint256"
            },
            {
              "internalType": "uint256",
              "name": "spotAllocationUsdc",
              "type": "uint256"
            },
            {
              "internalType": "bool",
              "name": "hedgeIsOpen",
              "type": "bool"
            },
            {
              "internalType": "int256",
              "name": "spotPricePnL",
              "type": "int256"
            },
            {
              "internalType": "int256",
              "name": "shortPricePnL",
              "type": "int256"
            },
            {
              "internalType": "int256",
              "name": "netDeltaPnL",
              "type": "int256"
            },
            {
              "internalType": "int256",
              "name": "fundingIncomeTotal",
              "type": "int256"
            },
            {
              "internalType": "int256",
              "name": "netPnL",
              "type": "int256"
            },
            {
              "internalType": "uint256",
              "name": "marginRatioBps",
              "type": "uint256"
            },
            {
              "internalType": "bool",
              "name": "marginIsHealthy",
              "type": "bool"
            },
            {
              "internalType": "int256",
              "name": "carryScore",
              "type": "int256"
            }
          ],
          "internalType": "struct IStrategyVault.VaultState",
          "name": "state",
          "type": "tuple"
        }
      ],
      "stateMutability": "view",
      "type": "function"
    },
    {
      "inputs": [],
      "name": "hedgeCollateral",
      "outputs": [
        {
          "internalType": "uint256",
          "name": "",
          "type": "uint256"
        }
      ],
      "stateMutability": "view",
      "type": "function"
    },
    {
      "inputs": [],
      "name": "hedgeEntryPrice",
      "outputs": [
        {
          "internalType": "uint256",
          "name": "",
          "type": "uint256"
        }
      ],
      "stateMutability": "view",
      "type": "function"
    },
    {
      "inputs": [],
      "name": "hedgeIsOpen",
      "outputs": [
        {
          "internalType": "bool",
          "name": "",
          "type": "bool"
        }
      ],
      "stateMutability": "view",
      "type": "function"
    },
    {
      "inputs": [],
      "name": "hedgeNotional",
      "outputs": [
        {
          "internalType": "uint256",
          "name": "",
          "type": "uint256"
        }
      ],
      "stateMutability": "view",
      "type": "function"
    },
    {
      "inputs": [],
      "name": "hedgeOpenTimestamp",
      "outputs": [
        {
          "internalType": "uint256",
          "name": "",
          "type": "uint256"
        }
      ],
      "stateMutability": "view",
      "type": "function"
    },
    {
      "inputs": [
        {
          "internalType": "int256",
          "name": "dailyFundingRateBps_",
          "type": "int256"
        }
      ],
      "name": "isCarryViable",
      "outputs": [
        {
          "internalType": "bool",
          "name": "",
          "type": "bool"
        }
      ],
      "stateMutability": "view",
      "type": "function"
    },
    {
      "inputs": [],
      "name": "maxHoldingPeriod",
      "outputs": [
        {
          "internalType": "uint256",
          "name": "",
          "type": "uint256"
        }
      ],
      "stateMutability": "view",
      "type": "function"
    },
    {
      "inputs": [
        {
          "internalType": "uint256",
          "name": "notional",
          "type": "uint256"
        },
        {
          "internalType": "uint256",
          "name": "collateral",
          "type": "uint256"
        },
        {
          "internalType": "int256",
          "name": "dailyFundingRateBps_",
          "type": "int256"
        }
      ],
      "name": "openHedge",
      "outputs": [],
      "stateMutability": "nonpayable",
      "type": "function"
    },
    {
      "inputs": [],
      "name": "oracle",
      "outputs": [
        {
          "internalType": "contract IPriceOracle",
          "name": "",
          "type": "address"
        }
      ],
      "stateMutability": "view",
      "type": "function"
    },
    {
      "inputs": [],
      "name": "owner",
      "outputs": [
        {
          "internalType": "address",
          "name": "",
          "type": "address"
        }
      ],
      "stateMutability": "view",
      "type": "function"
    },
    {
      "inputs": [],
      "name": "perpEngine",
      "outputs": [
        {
          "internalType": "contract IPerpEngine",
          "name": "",
          "type": "address"
        }
      ],
      "stateMutability": "view",
      "type": "function"
    },
    {
      "inputs": [],
      "name": "profitProtectionRatioBps",
      "outputs": [
        {
          "internalType": "uint256",
          "name": "",
          "type": "uint256"
        }
      ],
      "stateMutability": "view",
      "type": "function"
    },
    {
      "inputs": [],
      "name": "renounceOwnership",
      "outputs": [],
      "stateMutability": "nonpayable",
      "type": "function"
    },
    {
      "inputs": [],
      "name": "riskPremiumPerLeverageUnit",
      "outputs": [
        {
          "internalType": "uint256",
          "name": "",
          "type": "uint256"
        }
      ],
      "stateMutability": "view",
      "type": "function"
    },
    {
      "inputs": [],
      "name": "safetyMarginBps",
      "outputs": [
        {
          "internalType": "uint256",
          "name": "",
          "type": "uint256"
        }
      ],
      "stateMutability": "view",
      "type": "function"
    },
    {
      "inputs": [
        {
          "internalType": "uint256",
          "name": "newRateBps",
          "type": "uint256"
        }
      ],
      "name": "setBenchmarkRate",
      "outputs": [],
      "stateMutability": "nonpayable",
      "type": "function"
    },
    {
      "inputs": [
        {
          "internalType": "uint256",
          "name": "newCostBps",
          "type": "uint256"
        }
      ],
      "name": "setCostEstimate",
      "outputs": [],
      "stateMutability": "nonpayable",
      "type": "function"
    },
    {
      "inputs": [
        {
          "internalType": "uint256",
          "name": "newPeriodSeconds",
          "type": "uint256"
        }
      ],
      "name": "setMaxHoldingPeriod",
      "outputs": [],
      "stateMutability": "nonpayable",
      "type": "function"
    },
    {
      "inputs": [
        {
          "internalType": "uint256",
          "name": "newRatioBps",
          "type": "uint256"
        }
      ],
      "name": "setProfitProtectionRatio",
      "outputs": [],
      "stateMutability": "nonpayable",
      "type": "function"
    },
    {
      "inputs": [
        {
          "internalType": "uint256",
          "name": "newPremiumBps",
          "type": "uint256"
        }
      ],
      "name": "setRiskPremiumPerLeverageUnit",
      "outputs": [],
      "stateMutability": "nonpayable",
      "type": "function"
    },
    {
      "inputs": [
        {
          "internalType": "uint256",
          "name": "newMarginBps",
          "type": "uint256"
        }
      ],
      "name": "setSafetyMargin",
      "outputs": [],
      "stateMutability": "nonpayable",
      "type": "function"
    },
    {
      "inputs": [],
      "name": "shouldAutoExit",
      "outputs": [
        {
          "internalType": "bool",
          "name": "triggered",
          "type": "bool"
        },
        {
          "internalType": "string",
          "name": "reason",
          "type": "string"
        }
      ],
      "stateMutability": "view",
      "type": "function"
    },
    {
      "inputs": [],
      "name": "spotAllocationUsdc",
      "outputs": [
        {
          "internalType": "uint256",
          "name": "",
          "type": "uint256"
        }
      ],
      "stateMutability": "view",
      "type": "function"
    },
    {
      "inputs": [],
      "name": "totalDeposited",
      "outputs": [
        {
          "internalType": "uint256",
          "name": "",
          "type": "uint256"
        }
      ],
      "stateMutability": "view",
      "type": "function"
    },
    {
      "inputs": [],
      "name": "totalShares",
      "outputs": [
        {
          "internalType": "uint256",
          "name": "",
          "type": "uint256"
        }
      ],
      "stateMutability": "view",
      "type": "function"
    },
    {
      "inputs": [
        {
          "internalType": "address",
          "name": "newOwner",
          "type": "address"
        }
      ],
      "name": "transferOwnership",
      "outputs": [],
      "stateMutability": "nonpayable",
      "type": "function"
    },
    {
      "inputs": [],
      "name": "usdc",
      "outputs": [
        {
          "internalType": "contract IERC20",
          "name": "",
          "type": "address"
        }
      ],
      "stateMutability": "view",
      "type": "function"
    },
    {
      "inputs": [
        {
          "internalType": "address",
          "name": "",
          "type": "address"
        }
      ],
      "name": "userInfo",
      "outputs": [
        {
          "internalType": "uint256",
          "name": "shares",
          "type": "uint256"
        },
        {
          "internalType": "uint256",
          "name": "principal",
          "type": "uint256"
        }
      ],
      "stateMutability": "view",
      "type": "function"
    },
    {
      "inputs": [
        {
          "internalType": "uint256",
          "name": "shares",
          "type": "uint256"
        }
      ],
      "name": "withdraw",
      "outputs": [],
      "stateMutability": "nonpayable",
      "type": "function"
    }
  ],
  "bytecode": "0x60e06040523480156200001157600080fd5b50604051620028c3380380620028c383398101604081905262000034916200024b565b836001600160a01b0381166200006557604051631e4fbdf760e01b8152600060048201526024015b60405180910390fd5b6200007081620001de565b5060017f9b779b17422d0df92223018b32b4d1fa46e071723d6817e2486d003becc55f00556001600160a01b038316620000ed5760405162461bcd60e51b815260206004820152601860248201527f53747261746567795661756c743a207a65726f2075736463000000000000000060448201526064016200005c565b6001600160a01b038216620001455760405162461bcd60e51b815260206004820152601a60248201527f53747261746567795661756c743a207a65726f20656e67696e6500000000000060448201526064016200005c565b6001600160a01b0381166200019d5760405162461bcd60e51b815260206004820152601a60248201527f53747261746567795661756c743a207a65726f206f7261636c6500000000000060448201526064016200005c565b6001600160a01b0392831660805290821660a0521660c0525060c8600155604b600255603260035561032060045562278d00600555612328600655620002a8565b600080546001600160a01b038381166001600160a01b0319831681178455604051919092169283917f8be0079c531659141344cd1fd0a4f28419497f9722a3daafe3b4186f6b6457e09190a35050565b80516001600160a01b03811681146200024657600080fd5b919050565b600080600080608085870312156200026257600080fd5b6200026d856200022e565b93506200027d602086016200022e565b92506200028d604086016200022e565b91506200029d606086016200022e565b905092959194509250565b60805160a05160c0516125666200035d600039600081816103d401528181610b57015281816116b1015261198001526000818161035f01528181610c2e01528181610cd301528181610d6101528181610e4a01528181610f1f01528181611748015281816118070152611a9401526000818161032001528181610857015281816109c301528181611218015281816115310152818161177a01528181611a2301528181611b390152611ce001526125666000f3fe608060405234801561001057600080fd5b50600436106102275760003560e01c8063715018a611610130578063b6b55f25116100b8578063ea5280c61161007c578063ea5280c614610492578063f2fde38b1461049b578063f452fe1e146104ae578063fdce92f5146104c1578063ff50abdc146104d457600080fd5b8063b6b55f2514610451578063bcac369214610464578063c2ee47a01461046d578063c3ba3eff14610476578063cc5e4a481461047f57600080fd5b806399b813a5116100ff57806399b813a51461041a5780639e3a6ad314610423578063a50277751461042c578063a78c849b14610435578063af2a10d01461044857600080fd5b8063715018a6146103c75780637dc0d1d0146103cf5780637f527e55146103f65780638da5cb5b1461040957600080fd5b80633a98ef39116101b35780634a8c110a116101825780634a8c110a146103815780634d8efccf146103965780635ba5226b146103ac5780635cf3c6de146103b55780636ef1fe13146103be57600080fd5b80633a98ef39146102ff5780633d3aa3fb146103085780633e413bee1461031b57806348ba4d2b1461035a57600080fd5b80631959a002116101fa5780631959a002146102735780631fe8b06e146102af5780632e1a7d4d146102c25780633019e12f146102d557806331c43c38146102e857600080fd5b80630176b7201461022c5780630748112f1461024e578063096d24a214610258578063124f401e14610260575b600080fd5b600d546102399060ff1681565b60405190151581526020015b60405180910390f35b6102566104dd565b005b61025661066a565b61025661026e3660046120b2565b6106cf565b61029a6102813660046120cb565b6010602052600090815260409020805460019091015482565b60408051928352602083019190915201610245565b6102566102bd3660046120b2565b6106dc565b6102566102d03660046120b2565b6106e9565b6102566102e33660046120b2565b610a3f565b6102f160035481565b604051908152602001610245565b6102f160085481565b6102566103163660046120b2565b610a4c565b6103427f000000000000000000000000000000000000000000000000000000000000000081565b6040516001600160a01b039091168152602001610245565b6103427f000000000000000000000000000000000000000000000000000000000000000081565b610389610ab5565b60405161024591906120f4565b61039e610df7565b6040516102459291906121e1565b6102f1600f5481565b6102f1600e5481565b6102f160055481565b6102566110cc565b6103427f000000000000000000000000000000000000000000000000000000000000000081565b6102396104043660046120b2565b6110de565b6000546001600160a01b0316610342565b6102f1600a5481565b6102f160095481565b6102f160025481565b6102f16104433660046120cb565b611103565b6102f160065481565b61025661045f3660046120b2565b611168565b6102f160015481565b6102f1600b5481565b6102f1600c5481565b61025661048d3660046120b2565b611310565b6102f160045481565b6102566104a93660046120cb565b61137e565b6102566104bc3660046121fc565b6113b9565b6102566104cf3660046120b2565b6118e6565b6102f160075481565b6104e561195f565b600d5460ff1661053c5760405162461bcd60e51b815260206004820152601c60248201527f53747261746567795661756c743a206e6f206f70656e2068656467650000000060448201526064015b60405180910390fd5b600080306001600160a01b0316634d8efccf6040518163ffffffff1660e01b8152600401600060405180830381865afa15801561057d573d6000803e3d6000fd5b505050506040513d6000823e601f3d908101601f191682016040526105a59190810190612253565b91509150816106095760405162461bcd60e51b815260206004820152602a60248201527f53747261746567795661756c743a206e6f206578697420636f6e646974696f6e604482015269081d1c9a59d9d95c995960b21b6064820152608401610533565b600061061361197b565b90507fc6e009c88b102850ef6462ceeb14c02c73e84d898109a5d0d7926cac6d5ff8348282604051610646929190612313565b60405180910390a1505050610668600160008051602061251183398151915255565b565b610672611c8f565b600d5460ff166106c45760405162461bcd60e51b815260206004820152601c60248201527f53747261746567795661756c743a206e6f206f70656e206865646765000000006044820152606401610533565b6106cc61197b565b50565b6106d7611c8f565b600555565b6106e4611c8f565b600355565b6106f161195f565b3360009081526010602052604090208161074d5760405162461bcd60e51b815260206004820152601a60248201527f53747261746567795661756c743a207a65726f207368617265730000000000006044820152606401610533565b80548211156107a95760405162461bcd60e51b815260206004820152602260248201527f53747261746567795661756c743a20696e73756666696369656e742073686172604482015261657360f01b6064820152608401610533565b600d5460ff161561080e5760405162461bcd60e51b815260206004820152602960248201527f53747261746567795661756c743a206865646765206973206f70656e2c20636c6044820152681bdcd948199a5c9cdd60ba1b6064820152608401610533565b6000610818611cbc565b90506000600854828561082b919061234b565b6108359190612368565b6040516370a0823160e01b815230600482015290915081906001600160a01b037f000000000000000000000000000000000000000000000000000000000000000016906370a0823190602401602060405180830381865afa15801561089e573d6000803e3d6000fd5b505050506040513d601f19601f820116820180604052508101906108c2919061238a565b101561091e5760405162461bcd60e51b815260206004820152602560248201527f53747261746567795661756c743a20696e73756666696369656e74206c697175604482015264696469747960d81b6064820152608401610533565b825484036109325760006001840155610962565b82546001840154610943908661234b565b61094d9190612368565b836001015461095c91906123a3565b60018401555b8383600001600082825461097691906123a3565b92505081905550836008600082825461098f91906123a3565b90915550506007548111156109a55760006109b3565b806007546109b391906123a3565b6007556109ea6001600160a01b037f0000000000000000000000000000000000000000000000000000000000000000163383611d5a565b604080518581526020810183905233917f92ccf450a286a957af52509bc1c9939d1a6a481783e142e41e2499f0bb66ebc6910160405180910390a25050506106cc600160008051602061251183398151915255565b610a47611c8f565b600255565b610a54611c8f565b612710811115610ab05760405162461bcd60e51b815260206004820152602160248201527f53747261746567795661756c743a20726174696f2065786365656473203130306044820152602560f81b6064820152608401610533565b600655565b610b24604051806101a0016040528060008152602001600081526020016000815260200160008152602001600015158152602001600081526020016000815260200160008152602001600081526020016000815260200160008152602001600015158152602001600081525090565b600754815260085460208201526009546040820152600a546060820152600d5460ff161580156080830152610ddd5760007f00000000000000000000000000000000000000000000000000000000000000006001600160a01b03166398d5fdca6040518163ffffffff1660e01b8152600401602060405180830381865afa158015610bb3573d6000803e3d6000fd5b505050506040513d601f19601f82011682018060405250810190610bd7919061238a565b9050610be8600a54600c5483611d94565b60a0830152600b54600c54610bfe919083611e4b565b60c0830181905260a0830151610c1491906123b6565b60e083015260405163544305bf60e01b81523060048201527f00000000000000000000000000000000000000000000000000000000000000006001600160a01b03169063544305bf90602401602060405180830381865afa158015610c7d573d6000803e3d6000fd5b505050506040513d601f19601f82011682018060405250810190610ca1919061238a565b610100830181905260a0830151610cb891906123b6565b6101208301526040516354f4ac8760e01b81523060048201527f00000000000000000000000000000000000000000000000000000000000000006001600160a01b0316906354f4ac8790602401602060405180830381865afa158015610d22573d6000803e3d6000fd5b505050506040513d601f19601f82011682018060405250810190610d46919061238a565b61014083015260405163042e02cf60e01b81523060048201527f00000000000000000000000000000000000000000000000000000000000000006001600160a01b03169063042e02cf90602401602060405180830381865afa158015610db0573d6000803e3d6000fd5b505050506040513d601f19601f82011682018060405250810190610dd491906123de565b15610160830152505b610dee600154600e54600354611ef8565b61018082015290565b600d5460009060609060ff16610e3257505060408051808201909152600d81526c6e6f206f70656e20686564676560981b6020820152600091565b6040516354f4ac8760e01b81523060048201526000907f00000000000000000000000000000000000000000000000000000000000000006001600160a01b0316906354f4ac8790602401602060405180830381865afa158015610e99573d6000803e3d6000fd5b505050506040513d601f19601f82011682018060405250810190610ebd919061238a565b9050600454811015610f0757505060408051808201909152601e81527f4d415247494e3a2062656c6f7720736166657479207468726573686f6c6400006020820152600192909150565b60405163544305bf60e01b81523060048201526000907f00000000000000000000000000000000000000000000000000000000000000006001600160a01b03169063544305bf90602401602060405180830381865afa158015610f6e573d6000803e3d6000fd5b505050506040513d601f19601f82011682018060405250810190610f92919061238a565b9050600081121561100a576000610fa8826123f9565b90506000612710600654612710610fbf91906123a3565b600954610fcc919061234b565b610fd69190612368565b9050808211156110075760016040518060600160405280603981526020016124806039913995509550505050509091565b50505b600061101d600154600e54600354611ef8565b90506000811361104d5760016040518060600160405280603481526020016124b960349139945094505050509091565b600554600f5461105d9190612415565b42106110895760016040518060600160405280602481526020016124ed60249139945094505050509091565b60006040518060400160405280601b81526020017f6e6f206578697420636f6e646974696f6e207472696767657265640000000000815250945094505050509091565b6110d4611c8f565b6106686000611f1e565b6000806110f060015484600354611ef8565b90506110fc8160001290565b9392505050565b6001600160a01b0381166000908152601060205260408120805415806111295750600854155b156111375750600092915050565b6000611141611cbc565b9050600854818360000154611156919061234b565b6111609190612368565b949350505050565b61117061195f565b600081116111c05760405162461bcd60e51b815260206004820152601a60248201527f53747261746567795661756c743a207a65726f20616d6f756e740000000000006044820152606401610533565b60006008546000036111e2576111db8264e8d4a5100061234b565b905061120b565b60006111ec611cbc565b905080600854846111fd919061234b565b6112079190612368565b9150505b6112406001600160a01b037f000000000000000000000000000000000000000000000000000000000000000016333085611f6e565b336000908152601060205260408120805483929061125f908490612415565b90915550503360009081526010602052604081206001018054849290611286908490612415565b92505081905550806008600082825461129f9190612415565b9250508190555081600760008282546112b89190612415565b9091555050604080518381526020810183905233917f73a19dd210f1a7f902193214c0ee91dd35ee5b4d920cba8d519eca65a7b488ca910160405180910390a2506106cc600160008051602061251183398151915255565b611318611c8f565b6113888111156113795760405162461bcd60e51b815260206004820152602660248201527f53747261746567795661756c743a2062656e63686d61726b207261746520746f6044820152650de40d0d2ced60d31b6064820152608401610533565b600155565b611386611c8f565b6001600160a01b0381166113b057604051631e4fbdf760e01b815260006004820152602401610533565b6106cc81611f1e565b6113c1611c8f565b600d5460ff161561141e5760405162461bcd60e51b815260206004820152602160248201527f53747261746567795661756c743a20686564676520616c7265616479206f70656044820152603760f91b6064820152608401610533565b6000831161146e5760405162461bcd60e51b815260206004820152601c60248201527f53747261746567795661756c743a207a65726f206e6f74696f6e616c000000006044820152606401610533565b600082116114be5760405162461bcd60e51b815260206004820152601e60248201527f53747261746567795661756c743a207a65726f20636f6c6c61746572616c00006044820152606401610533565b8282111561151a5760405162461bcd60e51b8152602060048201526024808201527f53747261746567795661756c743a20636f6c6c61746572616c203e206e6f74696044820152631bdb985b60e21b6064820152608401610533565b6040516370a0823160e01b815230600482015282907f00000000000000000000000000000000000000000000000000000000000000006001600160a01b0316906370a0823190602401602060405180830381865afa158015611580573d6000803e3d6000fd5b505050506040513d601f19601f820116820180604052508101906115a4919061238a565b10156116035760405162461bcd60e51b815260206004820152602860248201527f53747261746567795661756c743a20696e73756666696369656e7420555344436044820152672062616c616e636560c01b6064820152608401610533565b600061160f8385612368565b9050600060025482611621919061234b565b60035461162e9190612415565b9050600061164160015485600354611ef8565b90508082126116ad5760405162461bcd60e51b815260206004820152603260248201527f53747261746567795661756c743a2063617272792073636f72652062656c6f7760448201527108191e5b985b5a58c81d1a1c995cda1bdb1960721b6064820152608401610533565b60007f00000000000000000000000000000000000000000000000000000000000000006001600160a01b03166398d5fdca6040518163ffffffff1660e01b8152600401602060405180830381865afa15801561170d573d6000803e3d6000fd5b505050506040513d601f19601f82011682018060405250810190611731919061238a565b60405163095ea7b360e01b81526001600160a01b037f000000000000000000000000000000000000000000000000000000000000000081166004830152602482018990529192507f00000000000000000000000000000000000000000000000000000000000000009091169063095ea7b3906044016020604051808303816000875af11580156117c5573d6000803e3d6000fd5b505050506040513d601f19601f820116820180604052508101906117e991906123de565b50604051631266a61960e01b815260048101889052602481018790527f00000000000000000000000000000000000000000000000000000000000000006001600160a01b031690631266a61990604401600060405180830381600087803b15801561185357600080fd5b505af1158015611867573d6000803e3d6000fd5b5050600d805460ff1916600117905550506009869055600b87905542600f55600e859055600a879055600c8190556040805188815260208101889052908101829052606081018390527f4cfa0d195cc7736b79022a26e719153d9ccf5e178c79a95f19b010d392ab99909060800160405180910390a150505050505050565b6118ee611c8f565b6101f4811161195a5760405162461bcd60e51b815260206004820152603260248201527f53747261746567795661756c743a206d7573742062652061626f7665206c69716044820152711d5a59185d1a5bdb881d1a1c995cda1bdb1960721b6064820152608401610533565b600455565b611967611faa565b600260008051602061251183398151915255565b6000807f00000000000000000000000000000000000000000000000000000000000000006001600160a01b03166398d5fdca6040518163ffffffff1660e01b8152600401602060405180830381865afa1580156119dc573d6000803e3d6000fd5b505050506040513d601f19601f82011682018060405250810190611a00919061238a565b6040516370a0823160e01b81523060048201529091506000906001600160a01b037f000000000000000000000000000000000000000000000000000000000000000016906370a0823190602401602060405180830381865afa158015611a6a573d6000803e3d6000fd5b505050506040513d601f19601f82011682018060405250810190611a8e919061238a565b905060007f00000000000000000000000000000000000000000000000000000000000000006001600160a01b031663f8432a1b6040518163ffffffff1660e01b81526004016020604051808303816000875af1158015611af2573d6000803e3d6000fd5b505050506040513d601f19601f82011682018060405250810190611b16919061238a565b6040516370a0823160e01b81523060048201529091506000906001600160a01b037f000000000000000000000000000000000000000000000000000000000000000016906370a0823190602401602060405180830381865afa158015611b80573d6000803e3d6000fd5b505050506040513d601f19601f82011682018060405250810190611ba4919061238a565b90506000611bb284836123a3565b90506000611bc5600a54600c5488611d94565b90506000611bd8600b54600c5489611e4b565b905060008160095485611beb9190612428565b611bf59190612428565b600954909150611c0585856123b6565b611c0f9190612428565b600d805460ff1916905560006009819055600b819055600f819055600a819055600c55604080518581526020810185905290810183905260608101829052608081018690529099507fef777f3be079a12e73d390849870098f948ff4ac42859adf6f9d17e7bece955a9060a00160405180910390a1505050505050505090565b6000546001600160a01b031633146106685760405163118cdaa760e01b8152336004820152602401610533565b6009546040516370a0823160e01b8152306004820152600091906001600160a01b037f000000000000000000000000000000000000000000000000000000000000000016906370a0823190602401602060405180830381865afa158015611d27573d6000803e3d6000fd5b505050506040513d601f19601f82011682018060405250810190611d4b919061238a565b611d559190612415565b905090565b611d678383836001611fda565b611d8f57604051635274afe760e01b81526001600160a01b0384166004820152602401610533565b505050565b6000808311611de55760405162461bcd60e51b815260206004820152601f60248201527f4172626974726167654d6174683a207a65726f20656e747279207072696365006044820152606401610533565b828210611e1657600083611df981856123a3565b611e03908761234b565b611e0d9190612368565b91506110fc9050565b600083611e2384826123a3565b611e2d908761234b565b611e379190612368565b9050611e42816123f9565b95945050505050565b6000808311611e9c5760405162461bcd60e51b815260206004820152601f60248201527f4172626974726167654d6174683a207a65726f20656e747279207072696365006044820152606401610533565b828210611ed757600083611eb081856123a3565b611eba908761234b565b611ec49190612368565b9050611ecf816123f9565b9150506110fc565b600083611ee484826123a3565b611eee908761234b565b611e429190612368565b600080611f078461016d61244f565b905082611f148683612428565b611e429190612428565b600080546001600160a01b038381166001600160a01b0319831681178455604051919092169283917f8be0079c531659141344cd1fd0a4f28419497f9722a3daafe3b4186f6b6457e09190a35050565b611f7c848484846001612040565b611fa457604051635274afe760e01b81526001600160a01b0385166004820152602401610533565b50505050565b6000805160206125118339815191525460020361066857604051633ee5aeb560e01b815260040160405180910390fd5b60405163a9059cbb60e01b60008181526001600160a01b038616600452602485905291602083604481808b5af192506001600051148316612034578383151615612027573d6000823e3d81fd5b6000873b113d1516831692505b60405250949350505050565b6040516323b872dd60e01b60008181526001600160a01b038781166004528616602452604485905291602083606481808c5af1925060016000511483166120a0578383151615612093573d6000823e3d81fd5b6000883b113d1516831692505b60405250600060605295945050505050565b6000602082840312156120c457600080fd5b5035919050565b6000602082840312156120dd57600080fd5b81356001600160a01b03811681146110fc57600080fd5b60006101a082019050825182526020830151602083015260408301516040830152606083015160608301526080830151612132608084018215159052565b5060a0838101519083015260c0808401519083015260e080840151908301526101008084015190830152610120808401519083015261014080840151908301526101608084015180151582850152505061018092830151919092015290565b60005b838110156121ac578181015183820152602001612194565b50506000910152565b600081518084526121cd816020860160208601612191565b601f01601f19169290920160200192915050565b821515815260406020820152600061116060408301846121b5565b60008060006060848603121561221157600080fd5b505081359360208301359350604090920135919050565b8051801515811461223857600080fd5b919050565b634e487b7160e01b600052604160045260246000fd5b6000806040838503121561226657600080fd5b61226f83612228565b9150602083015167ffffffffffffffff8082111561228c57600080fd5b818501915085601f8301126122a057600080fd5b8151818111156122b2576122b261223d565b604051601f8201601f19908116603f011681019083821181831017156122da576122da61223d565b816040528281528860208487010111156122f357600080fd5b612304836020830160208801612191565b80955050505050509250929050565b60408152600061232660408301856121b5565b90508260208301529392505050565b634e487b7160e01b600052601160045260246000fd5b808202811582820484141761236257612362612335565b92915050565b60008261238557634e487b7160e01b600052601260045260246000fd5b500490565b60006020828403121561239c57600080fd5b5051919050565b8181038181111561236257612362612335565b80820182811260008312801582168215821617156123d6576123d6612335565b505092915050565b6000602082840312156123f057600080fd5b6110fc82612228565b6000600160ff1b820161240e5761240e612335565b5060000390565b8082018082111561236257612362612335565b818103600083128015838313168383128216171561244857612448612335565b5092915050565b80820260008212600160ff1b8414161561246b5761246b612335565b81810583148215176123625761236261233556fe4341504954414c3a206e6574206c6f7373206578636565647320636f6c6c61746572616c2070726f74656374696f6e207468726573686f6c6443415252593a2066756e64696e67206e6f206c6f6e67657220657863656564732062656e63686d61726b20616e6420636f73747354494d453a206d6178696d756d20686f6c64696e6720706572696f6420726561636865649b779b17422d0df92223018b32b4d1fa46e071723d6817e2486d003becc55f00a2646970667358221220a9461a6a379fc5caf91a48635505732c8d256c2b9ac0c671783d27d4b689635f64736f6c63430008180033",
  "linkReferences": {},
  "deployedLinkReferences": {}
}